{
  "address": "0x6A81EBbd82E1aC1938A1969c00a8E484c03EFD4E",
  "abi": [
    {
      "inputs": [
        {
          "internalType": "string",
          "name": "uriUrl_",
          "type": "string"
        }
      ],
      "stateMutability": "nonpayable",
      "type": "constructor"
    },
    {
      "anonymous": false,
      "inputs": [
        {
          "indexed": true,
          "internalType": "address",
          "name": "owner",
          "type": "address"
        },
        {
          "indexed": true,
          "internalType": "address",
          "name": "approved",
          "type": "address"
        },
        {
          "indexed": true,
          "internalType": "uint256",
          "name": "tokenId",
          "type": "uint256"
        }
      ],
      "name": "Approval",
      "type": "event"
    },
    {
      "anonymous": false,
      "inputs": [
        {
          "indexed": true,
          "internalType": "address",
          "name": "owner",
          "type": "address"
        },
        {
          "indexed": true,
          "internalType": "address",
          "name": "operator",
          "type": "address"
        },
        {
          "indexed": false,
          "internalType": "bool",
          "name": "approved",
          "type": "bool"
        }
      ],
      "name": "ApprovalForAll",
      "type": "event"
    },
    {
      "anonymous": false,
      "inputs": [
        {
          "indexed": true,
          "internalType": "address",
          "name": "_creator",
          "type": "address"
        },
        {
          "indexed": true,
          "internalType": "uint256",
          "name": "_tokenId",
          "type": "uint256"
        }
      ],
      "name": "MintMarsPunk",
      "type": "event"
    },
    {
      "anonymous": false,
      "inputs": [
        {
          "indexed": true,
          "internalType": "address",
          "name": "previousOwner",
          "type": "address"
        },
        {
          "indexed": true,
          "internalType": "address",
          "name": "newOwner",
          "type": "address"
        }
      ],
      "name": "OwnershipTransferred",
      "type": "event"
    },
    {
      "anonymous": false,
      "inputs": [
        {
          "indexed": true,
          "internalType": "address",
          "name": "from",
          "type": "address"
        },
        {
          "indexed": true,
          "internalType": "address",
          "name": "to",
          "type": "address"
        },
        {
          "indexed": true,
          "internalType": "uint256",
          "name": "tokenId",
          "type": "uint256"
        }
      ],
      "name": "Transfer",
      "type": "event"
    },
    {
      "inputs": [
        {
          "internalType": "address",
          "name": "to",
          "type": "address"
        },
        {
          "internalType": "uint256",
          "name": "tokenId",
          "type": "uint256"
        }
      ],
      "name": "approve",
      "outputs": [],
      "stateMutability": "nonpayable",
      "type": "function"
    },
    {
      "inputs": [
        {
          "internalType": "address",
          "name": "owner",
          "type": "address"
        }
      ],
      "name": "balanceOf",
      "outputs": [
        {
          "internalType": "uint256",
          "name": "",
          "type": "uint256"
        }
      ],
      "stateMutability": "view",
      "type": "function"
    },
    {
      "inputs": [
        {
          "internalType": "uint256",
          "name": "tokenId",
          "type": "uint256"
        }
      ],
      "name": "getApproved",
      "outputs": [
        {
          "internalType": "address",
          "name": "",
          "type": "address"
        }
      ],
      "stateMutability": "view",
      "type": "function"
    },
    {
      "inputs": [
        {
          "internalType": "address",
          "name": "owner",
          "type": "address"
        },
        {
          "internalType": "address",
          "name": "operator",
          "type": "address"
        }
      ],
      "name": "isApprovedForAll",
      "outputs": [
        {
          "internalType": "bool",
          "name": "",
          "type": "bool"
        }
      ],
      "stateMutability": "view",
      "type": "function"
    },
    {
      "inputs": [],
      "name": "mint",
      "outputs": [
        {
          "internalType": "uint256",
          "name": "",
          "type": "uint256"
        }
      ],
      "stateMutability": "nonpayable",
      "type": "function"
    },
    {
      "inputs": [],
      "name": "name",
      "outputs": [
        {
          "internalType": "string",
          "name": "",
          "type": "string"
        }
      ],
      "stateMutability": "view",
      "type": "function"
    },
    {
      "inputs": [],
      "name": "owner",
      "outputs": [
        {
          "internalType": "address",
          "name": "",
          "type": "address"
        }
      ],
      "stateMutability": "view",
      "type": "function"
    },
    {
      "inputs": [
        {
          "internalType": "uint256",
          "name": "tokenId",
          "type": "uint256"
        }
      ],
      "name": "ownerOf",
      "outputs": [
        {
          "internalType": "address",
          "name": "",
          "type": "address"
        }
      ],
      "stateMutability": "view",
      "type": "function"
    },
    {
      "inputs": [],
      "name": "renounceOwnership",
      "outputs": [],
      "stateMutability": "nonpayable",
      "type": "function"
    },
    {
      "inputs": [
        {
          "internalType": "address",
          "name": "from",
          "type": "address"
        },
        {
          "internalType": "address",
          "name": "to",
          "type": "address"
        },
        {
          "internalType": "uint256",
          "name": "tokenId",
          "type": "uint256"
        }
      ],
      "name": "safeTransferFrom",
      "outputs": [],
      "stateMutability": "nonpayable",
      "type": "function"
    },
    {
      "inputs": [
        {
          "internalType": "address",
          "name": "from",
          "type": "address"
        },
        {
          "internalType": "address",
          "name": "to",
          "type": "address"
        },
        {
          "internalType": "uint256",
          "name": "tokenId",
          "type": "uint256"
        },
        {
          "internalType": "bytes",
          "name": "_data",
          "type": "bytes"
        }
      ],
      "name": "safeTransferFrom",
      "outputs": [],
      "stateMutability": "nonpayable",
      "type": "function"
    },
    {
      "inputs": [
        {
          "internalType": "address",
          "name": "operator",
          "type": "address"
        },
        {
          "internalType": "bool",
          "name": "approved",
          "type": "bool"
        }
      ],
      "name": "setApprovalForAll",
      "outputs": [],
      "stateMutability": "nonpayable",
      "type": "function"
    },
    {
      "inputs": [
        {
          "internalType": "bytes4",
          "name": "interfaceId",
          "type": "bytes4"
        }
      ],
      "name": "supportsInterface",
      "outputs": [
        {
          "internalType": "bool",
          "name": "",
          "type": "bool"
        }
      ],
      "stateMutability": "view",
      "type": "function"
    },
    {
      "inputs": [],
      "name": "symbol",
      "outputs": [
        {
          "internalType": "string",
          "name": "",
          "type": "string"
        }
      ],
      "stateMutability": "view",
      "type": "function"
    },
    {
      "inputs": [],
      "name": "tokenIds",
      "outputs": [
        {
          "internalType": "uint256",
          "name": "_value",
          "type": "uint256"
        }
      ],
      "stateMutability": "view",
      "type": "function"
    },
    {
      "inputs": [
        {
          "internalType": "uint256",
          "name": "tokenId",
          "type": "uint256"
        }
      ],
      "name": "tokenURI",
      "outputs": [
        {
          "internalType": "string",
          "name": "",
          "type": "string"
        }
      ],
      "stateMutability": "view",
      "type": "function"
    },
    {
      "inputs": [
        {
          "internalType": "address",
          "name": "from",
          "type": "address"
        },
        {
          "internalType": "address",
          "name": "to",
          "type": "address"
        },
        {
          "internalType": "uint256",
          "name": "tokenId",
          "type": "uint256"
        }
      ],
      "name": "transferFrom",
      "outputs": [],
      "stateMutability": "nonpayable",
      "type": "function"
    },
    {
      "inputs": [
        {
          "internalType": "address",
          "name": "newOwner",
          "type": "address"
        }
      ],
      "name": "transferOwnership",
      "outputs": [],
      "stateMutability": "nonpayable",
      "type": "function"
    }
  ],
  "transactionHash": "0xe2d3b366bf28a3c7dee80d0da0d76630d3dc4e43d941e726f717bf68da81b669",
  "args": [
    "https://opensea-creatures-api.herokuapp.com/api/creature/"
  ],
  "solcInputHash": "3bcc6d7f0552a40a0c352d5f8aa04e3a",
  "bytecode": "0x60806040523480156200001157600080fd5b5060405162001a5938038062001a598339810160408190526200003491620001c5565b604080518082018252600a8152694d6172732050756e6b7360b01b60208083019182528351808501909452600284526104d560f41b90840152815191929162000080916000916200011f565b508051620000969060019060208401906200011f565b5050506000620000ab6200011b60201b60201c565b600680546001600160a01b0319166001600160a01b038316908117909155604051919250906000907f8be0079c531659141344cd1fd0a4f28419497f9722a3daafe3b4186f6b6457e0908290a35060016007558051620001139060099060208401906200011f565b5050620002e7565b3390565b8280546200012d9062000294565b90600052602060002090601f0160209004810192826200015157600085556200019c565b82601f106200016c57805160ff19168380011785556200019c565b828001600101855582156200019c579182015b828111156200019c5782518255916020019190600101906200017f565b50620001aa929150620001ae565b5090565b5b80821115620001aa5760008155600101620001af565b60006020808385031215620001d8578182fd5b82516001600160401b0380821115620001ef578384fd5b818501915085601f83011262000203578384fd5b815181811115620002185762000218620002d1565b604051601f8201601f19168101850183811182821017156200023e576200023e620002d1565b604052818152838201850188101562000255578586fd5b8592505b8183101562000278578383018501518184018601529184019162000259565b818311156200028957858583830101525b979650505050505050565b600281046001821680620002a957607f821691505b60208210811415620002cb57634e487b7160e01b600052602260045260246000fd5b50919050565b634e487b7160e01b600052604160045260246000fd5b61176280620002f76000396000f3fe608060405234801561001057600080fd5b50600436106101165760003560e01c8063714cff56116100a2578063a22cb46511610071578063a22cb4651461020f578063b88d4fde14610222578063c87b56dd14610235578063e985e9c514610248578063f2fde38b1461025b57610116565b8063714cff56146101ef578063715018a6146101f75780638da5cb5b146101ff57806395d89b411461020757610116565b80631249c58b116100e95780631249c58b1461018e57806323b872dd146101a357806342842e0e146101b65780636352211e146101c957806370a08231146101dc57610116565b806301ffc9a71461011b57806306fdde0314610144578063081812fc14610159578063095ea7b314610179575b600080fd5b61012e610129366004611038565b61026e565b60405161013b9190611134565b60405180910390f35b61014c6102b6565b60405161013b919061113f565b61016c610167366004611070565b610348565b60405161013b91906110e3565b61018c61018736600461100f565b610394565b005b61019661042c565b60405161013b91906115ef565b61018c6101b1366004610ece565b6104af565b61018c6101c4366004610ece565b6104e7565b61016c6101d7366004611070565b610502565b6101966101ea366004610e82565b610537565b61019661057b565b61018c610581565b61016c61060a565b61014c610619565b61018c61021d366004610fd5565b610628565b61018c610230366004610f09565b6106f6565b61014c610243366004611070565b610735565b61012e610256366004610e9c565b6107b8565b61018c610269366004610e82565b6107e6565b60006001600160e01b031982166380ac58cd60e01b148061029f57506001600160e01b03198216635b5e139f60e01b145b806102ae57506102ae826108a7565b90505b919050565b6060600080546102c590611667565b80601f01602080910402602001604051908101604052809291908181526020018280546102f190611667565b801561033e5780601f106103135761010080835404028352916020019161033e565b820191906000526020600020905b81548152906001019060200180831161032157829003601f168201915b5050505050905090565b6000610353826108c0565b6103785760405162461bcd60e51b815260040161036f9061140d565b60405180910390fd5b506000908152600460205260409020546001600160a01b031690565b600061039f82610502565b9050806001600160a01b0316836001600160a01b031614156103d35760405162461bcd60e51b815260040161036f90611526565b806001600160a01b03166103e56108dd565b6001600160a01b031614806104015750610401816102566108dd565b61041d5760405162461bcd60e51b815260040161036f906112e8565b61042783836108e1565b505050565b6000600260075414156104515760405162461bcd60e51b815260040161036f906115b8565b6002600755610460600861094f565b600061046c6008610958565b9050610478338261095c565b604051819033907fca898b21aa300339a8391c090656299410e77deb0aaafa3c6ee254b31f94f32490600090a39050600160075590565b6104c06104ba6108dd565b82610a3b565b6104dc5760405162461bcd60e51b815260040161036f90611567565b610427838383610ac0565b610427838383604051806020016040528060008152506106f6565b6000818152600260205260408120546001600160a01b0316806102ae5760405162461bcd60e51b815260040161036f9061138f565b60006001600160a01b03821661055f5760405162461bcd60e51b815260040161036f90611345565b506001600160a01b031660009081526003602052604090205490565b60085481565b6105896108dd565b6001600160a01b031661059a61060a565b6001600160a01b0316146105c05760405162461bcd60e51b815260040161036f90611459565b6006546040516000916001600160a01b0316907f8be0079c531659141344cd1fd0a4f28419497f9722a3daafe3b4186f6b6457e0908390a3600680546001600160a01b0319169055565b6006546001600160a01b031690565b6060600180546102c590611667565b6106306108dd565b6001600160a01b0316826001600160a01b031614156106615760405162461bcd60e51b815260040161036f90611265565b806005600061066e6108dd565b6001600160a01b03908116825260208083019390935260409182016000908120918716808252919093529120805460ff1916921515929092179091556106b26108dd565b6001600160a01b03167f17307eab39ab6107e8899845ad3d59bd9653f200f220920489ca2b5937696c31836040516106ea9190611134565b60405180910390a35050565b6107076107016108dd565b83610a3b565b6107235760405162461bcd60e51b815260040161036f90611567565b61072f84848484610bed565b50505050565b6060610740826108c0565b61075c5760405162461bcd60e51b815260040161036f906114d7565b6000610766610c20565b9050600081511161078657604051806020016040528060008152506107b1565b8061079084610c2f565b6040516020016107a19291906110b4565b6040516020818303038152906040525b9392505050565b6001600160a01b03918216600090815260056020908152604080832093909416825291909152205460ff1690565b6107ee6108dd565b6001600160a01b03166107ff61060a565b6001600160a01b0316146108255760405162461bcd60e51b815260040161036f90611459565b6001600160a01b03811661084b5760405162461bcd60e51b815260040161036f906111a4565b6006546040516001600160a01b038084169216907f8be0079c531659141344cd1fd0a4f28419497f9722a3daafe3b4186f6b6457e090600090a3600680546001600160a01b0319166001600160a01b0392909216919091179055565b6001600160e01b031981166301ffc9a760e01b14919050565b6000908152600260205260409020546001600160a01b0316151590565b3390565b600081815260046020526040902080546001600160a01b0319166001600160a01b038416908117909155819061091682610502565b6001600160a01b03167f8c5be1e5ebec7d5bd14f71427d1e84f3dd0314c0f7b2291e5b200ac8c7c3b92560405160405180910390a45050565b80546001019055565b5490565b6001600160a01b0382166109825760405162461bcd60e51b815260040161036f906113d8565b61098b816108c0565b156109a85760405162461bcd60e51b815260040161036f906111ea565b6109b460008383610427565b6001600160a01b03821660009081526003602052604081208054600192906109dd9084906115f8565b909155505060008181526002602052604080822080546001600160a01b0319166001600160a01b03861690811790915590518392907fddf252ad1be2c89b69c2b068fc378daa952ba7f163c4a11628f55a4df523b3ef908290a45050565b6000610a46826108c0565b610a625760405162461bcd60e51b815260040161036f9061129c565b6000610a6d83610502565b9050806001600160a01b0316846001600160a01b03161480610aa85750836001600160a01b0316610a9d84610348565b6001600160a01b0316145b80610ab85750610ab881856107b8565b949350505050565b826001600160a01b0316610ad382610502565b6001600160a01b031614610af95760405162461bcd60e51b815260040161036f9061148e565b6001600160a01b038216610b1f5760405162461bcd60e51b815260040161036f90611221565b610b2a838383610427565b610b356000826108e1565b6001600160a01b0383166000908152600360205260408120805460019290610b5e908490611624565b90915550506001600160a01b0382166000908152600360205260408120805460019290610b8c9084906115f8565b909155505060008181526002602052604080822080546001600160a01b0319166001600160a01b0386811691821790925591518493918716917fddf252ad1be2c89b69c2b068fc378daa952ba7f163c4a11628f55a4df523b3ef91a4505050565b610bf8848484610ac0565b610c0484848484610d4a565b61072f5760405162461bcd60e51b815260040161036f90611152565b6060600980546102c590611667565b606081610c5457506040805180820190915260018152600360fc1b60208201526102b1565b8160005b8115610c7e5780610c68816116a2565b9150610c779050600a83611610565b9150610c58565b60008167ffffffffffffffff811115610ca757634e487b7160e01b600052604160045260246000fd5b6040519080825280601f01601f191660200182016040528015610cd1576020820181803683370190505b5090505b8415610ab857610ce6600183611624565b9150610cf3600a866116bd565b610cfe9060306115f8565b60f81b818381518110610d2157634e487b7160e01b600052603260045260246000fd5b60200101906001600160f81b031916908160001a905350610d43600a86611610565b9450610cd5565b6000610d5e846001600160a01b0316610e65565b15610e5a57836001600160a01b031663150b7a02610d7a6108dd565b8786866040518563ffffffff1660e01b8152600401610d9c94939291906110f7565b602060405180830381600087803b158015610db657600080fd5b505af1925050508015610de6575060408051601f3d908101601f19168201909252610de391810190611054565b60015b610e40573d808015610e14576040519150601f19603f3d011682016040523d82523d6000602084013e610e19565b606091505b508051610e385760405162461bcd60e51b815260040161036f90611152565b805181602001fd5b6001600160e01b031916630a85bd0160e11b149050610ab8565b506001949350505050565b3b151590565b80356001600160a01b03811681146102b157600080fd5b600060208284031215610e93578081fd5b6107b182610e6b565b60008060408385031215610eae578081fd5b610eb783610e6b565b9150610ec560208401610e6b565b90509250929050565b600080600060608486031215610ee2578081fd5b610eeb84610e6b565b9250610ef960208501610e6b565b9150604084013590509250925092565b60008060008060808587031215610f1e578081fd5b610f2785610e6b565b93506020610f36818701610e6b565b935060408601359250606086013567ffffffffffffffff80821115610f59578384fd5b818801915088601f830112610f6c578384fd5b813581811115610f7e57610f7e6116fd565b604051601f8201601f1916810185018381118282101715610fa157610fa16116fd565b60405281815283820185018b1015610fb7578586fd5b81858501868301379081019093019390935250939692955090935050565b60008060408385031215610fe7578182fd5b610ff083610e6b565b915060208301358015158114611004578182fd5b809150509250929050565b60008060408385031215611021578182fd5b61102a83610e6b565b946020939093013593505050565b600060208284031215611049578081fd5b81356107b181611713565b600060208284031215611065578081fd5b81516107b181611713565b600060208284031215611081578081fd5b5035919050565b600081518084526110a081602086016020860161163b565b601f01601f19169290920160200192915050565b600083516110c681846020880161163b565b8351908301906110da81836020880161163b565b01949350505050565b6001600160a01b0391909116815260200190565b6001600160a01b038581168252841660208201526040810183905260806060820181905260009061112a90830184611088565b9695505050505050565b901515815260200190565b6000602082526107b16020830184611088565b60208082526032908201527f4552433732313a207472616e7366657220746f206e6f6e20455243373231526560408201527131b2b4bb32b91034b6b83632b6b2b73a32b960711b606082015260800190565b60208082526026908201527f4f776e61626c653a206e6577206f776e657220697320746865207a65726f206160408201526564647265737360d01b606082015260800190565b6020808252601c908201527f4552433732313a20746f6b656e20616c7265616479206d696e74656400000000604082015260600190565b60208082526024908201527f4552433732313a207472616e7366657220746f20746865207a65726f206164646040820152637265737360e01b606082015260800190565b60208082526019908201527f4552433732313a20617070726f766520746f2063616c6c657200000000000000604082015260600190565b6020808252602c908201527f4552433732313a206f70657261746f7220717565727920666f72206e6f6e657860408201526b34b9ba32b73a103a37b5b2b760a11b606082015260800190565b60208082526038908201527f4552433732313a20617070726f76652063616c6c6572206973206e6f74206f7760408201527f6e6572206e6f7220617070726f76656420666f7220616c6c0000000000000000606082015260800190565b6020808252602a908201527f4552433732313a2062616c616e636520717565727920666f7220746865207a65604082015269726f206164647265737360b01b606082015260800190565b60208082526029908201527f4552433732313a206f776e657220717565727920666f72206e6f6e657869737460408201526832b73a103a37b5b2b760b91b606082015260800190565b6020808252818101527f4552433732313a206d696e7420746f20746865207a65726f2061646472657373604082015260600190565b6020808252602c908201527f4552433732313a20617070726f76656420717565727920666f72206e6f6e657860408201526b34b9ba32b73a103a37b5b2b760a11b606082015260800190565b6020808252818101527f4f776e61626c653a2063616c6c6572206973206e6f7420746865206f776e6572604082015260600190565b60208082526029908201527f4552433732313a207472616e73666572206f6620746f6b656e2074686174206960408201526839903737ba1037bbb760b91b606082015260800190565b6020808252602f908201527f4552433732314d657461646174613a2055524920717565727920666f72206e6f60408201526e3732bc34b9ba32b73a103a37b5b2b760891b606082015260800190565b60208082526021908201527f4552433732313a20617070726f76616c20746f2063757272656e74206f776e656040820152603960f91b606082015260800190565b60208082526031908201527f4552433732313a207472616e736665722063616c6c6572206973206e6f74206f6040820152701ddb995c881b9bdc88185c1c1c9bdd9959607a1b606082015260800190565b6020808252601f908201527f5265656e7472616e637947756172643a207265656e7472616e742063616c6c00604082015260600190565b90815260200190565b6000821982111561160b5761160b6116d1565b500190565b60008261161f5761161f6116e7565b500490565b600082821015611636576116366116d1565b500390565b60005b8381101561165657818101518382015260200161163e565b8381111561072f5750506000910152565b60028104600182168061167b57607f821691505b6020821081141561169c57634e487b7160e01b600052602260045260246000fd5b50919050565b60006000198214156116b6576116b66116d1565b5060010190565b6000826116cc576116cc6116e7565b500690565b634e487b7160e01b600052601160045260246000fd5b634e487b7160e01b600052601260045260246000fd5b634e487b7160e01b600052604160045260246000fd5b6001600160e01b03198116811461172957600080fd5b5056fea26469706673582212200d66a54ae8adcde70bb1fc9d6b7434952f6e8ff139dc02a13309ef089f871e1464736f6c63430008000033",
  "devdoc": {
    "kind": "dev",
    "methods": {
      "approve(address,uint256)": {
        "details": "See {IERC721-approve}."
      },
      "balanceOf(address)": {
        "details": "See {IERC721-balanceOf}."
      },
      "getApproved(uint256)": {
        "details": "See {IERC721-getApproved}."
      },
      "isApprovedForAll(address,address)": {
        "details": "See {IERC721-isApprovedForAll}."
      },
      "name()": {
        "details": "See {IERC721Metadata-name}."
      },
      "owner()": {
        "details": "Returns the address of the current owner."
      },
      "ownerOf(uint256)": {
        "details": "See {IERC721-ownerOf}."
      },
      "renounceOwnership()": {
        "details": "Leaves the contract without owner. It will not be possible to call `onlyOwner` functions anymore. Can only be called by the current owner. NOTE: Renouncing ownership will leave the contract without an owner, thereby removing any functionality that is only available to the owner."
      },
      "safeTransferFrom(address,address,uint256)": {
        "details": "See {IERC721-safeTransferFrom}."
      },
      "safeTransferFrom(address,address,uint256,bytes)": {
        "details": "See {IERC721-safeTransferFrom}."
      },
      "setApprovalForAll(address,bool)": {
        "details": "See {IERC721-setApprovalForAll}."
      },
      "supportsInterface(bytes4)": {
        "details": "See {IERC165-supportsInterface}."
      },
      "symbol()": {
        "details": "See {IERC721Metadata-symbol}."
      },
      "tokenURI(uint256)": {
        "details": "See {IERC721Metadata-tokenURI}."
      },
      "transferFrom(address,address,uint256)": {
        "details": "See {IERC721-transferFrom}."
      },
      "transferOwnership(address)": {
        "details": "Transfers ownership of the contract to a new account (`newOwner`). Can only be called by the current owner."
      }
    },
    "version": 1
  },
  "userdoc": {
    "kind": "user",
    "methods": {
      "mint()": {
        "notice": "TODO it is just demo now"
      }
    },
    "version": 1
  },
  "storageLayout": {
    "storage": [
      {
        "astId": 1996,
        "contract": "contracts/MarsPunks.sol:MarsPunks",
        "label": "_name",
        "offset": 0,
        "slot": "0",
        "type": "t_string_storage"
      },
      {
        "astId": 1998,
        "contract": "contracts/MarsPunks.sol:MarsPunks",
        "label": "_symbol",
        "offset": 0,
        "slot": "1",
        "type": "t_string_storage"
      },
      {
        "astId": 2002,
        "contract": "contracts/MarsPunks.sol:MarsPunks",
        "label": "_owners",
        "offset": 0,
        "slot": "2",
        "type": "t_mapping(t_uint256,t_address)"
      },
      {
        "astId": 2006,
        "contract": "contracts/MarsPunks.sol:MarsPunks",
        "label": "_balances",
        "offset": 0,
        "slot": "3",
        "type": "t_mapping(t_address,t_uint256)"
      },
      {
        "astId": 2010,
        "contract": "contracts/MarsPunks.sol:MarsPunks",
        "label": "_tokenApprovals",
        "offset": 0,
        "slot": "4",
        "type": "t_mapping(t_uint256,t_address)"
      },
      {
        "astId": 2016,
        "contract": "contracts/MarsPunks.sol:MarsPunks",
        "label": "_operatorApprovals",
        "offset": 0,
        "slot": "5",
        "type": "t_mapping(t_address,t_mapping(t_address,t_bool))"
      },
      {
        "astId": 7,
        "contract": "contracts/MarsPunks.sol:MarsPunks",
        "label": "_owner",
        "offset": 0,
        "slot": "6",
        "type": "t_address"
      },
      {
        "astId": 120,
        "contract": "contracts/MarsPunks.sol:MarsPunks",
        "label": "_status",
        "offset": 0,
        "slot": "7",
        "type": "t_uint256"
      },
      {
        "astId": 5034,
        "contract": "contracts/MarsPunks.sol:MarsPunks",
        "label": "tokenIds",
        "offset": 0,
        "slot": "8",
        "type": "t_struct(Counter)3643_storage"
      },
      {
        "astId": 5036,
        "contract": "contracts/MarsPunks.sol:MarsPunks",
        "label": "_uriUrl",
        "offset": 0,
        "slot": "9",
        "type": "t_string_storage"
      }
    ],
    "types": {
      "t_address": {
        "encoding": "inplace",
        "label": "address",
        "numberOfBytes": "20"
      },
      "t_bool": {
        "encoding": "inplace",
        "label": "bool",
        "numberOfBytes": "1"
      },
      "t_mapping(t_address,t_bool)": {
        "encoding": "mapping",
        "key": "t_address",
        "label": "mapping(address => bool)",
        "numberOfBytes": "32",
        "value": "t_bool"
      },
      "t_mapping(t_address,t_mapping(t_address,t_bool))": {
        "encoding": "mapping",
        "key": "t_address",
        "label": "mapping(address => mapping(address => bool))",
        "numberOfBytes": "32",
        "value": "t_mapping(t_address,t_bool)"
      },
      "t_mapping(t_address,t_uint256)": {
        "encoding": "mapping",
        "key": "t_address",
        "label": "mapping(address => uint256)",
        "numberOfBytes": "32",
        "value": "t_uint256"
      },
      "t_mapping(t_uint256,t_address)": {
        "encoding": "mapping",
        "key": "t_uint256",
        "label": "mapping(uint256 => address)",
        "numberOfBytes": "32",
        "value": "t_address"
      },
      "t_string_storage": {
        "encoding": "bytes",
        "label": "string",
        "numberOfBytes": "32"
      },
      "t_struct(Counter)3643_storage": {
        "encoding": "inplace",
        "label": "struct Counters.Counter",
        "members": [
          {
            "astId": 3642,
            "contract": "contracts/MarsPunks.sol:MarsPunks",
            "label": "_value",
            "offset": 0,
            "slot": "0",
            "type": "t_uint256"
          }
        ],
        "numberOfBytes": "32"
      },
      "t_uint256": {
        "encoding": "inplace",
        "label": "uint256",
        "numberOfBytes": "32"
      }
    }
  }
}