{
  "address": "0x9bEdeA10841579836fc91f65E709B24810588540",
  "abi": [
    {
      "inputs": [],
      "stateMutability": "nonpayable",
      "type": "constructor"
    },
    {
      "anonymous": false,
      "inputs": [
        {
          "indexed": true,
          "internalType": "address",
          "name": "asset",
          "type": "address"
        },
        {
          "indexed": false,
          "internalType": "address",
          "name": "user",
          "type": "address"
        }
      ],
      "name": "AddQuoteToken",
      "type": "event"
    },
    {
      "anonymous": false,
      "inputs": [
        {
          "indexed": false,
          "internalType": "address",
          "name": "userAddress",
          "type": "address"
        },
        {
          "indexed": false,
          "internalType": "address payable",
          "name": "relayerAddress",
          "type": "address"
        },
        {
          "indexed": false,
          "internalType": "bytes",
          "name": "functionSignature",
          "type": "bytes"
        }
      ],
      "name": "MetaTransactionExecuted",
      "type": "event"
    },
    {
      "anonymous": false,
      "inputs": [
        {
          "indexed": true,
          "internalType": "uint256",
          "name": "offerId",
          "type": "uint256"
        },
        {
          "indexed": true,
          "internalType": "address",
          "name": "seller",
          "type": "address"
        },
        {
          "indexed": true,
          "internalType": "address",
          "name": "buyer",
          "type": "address"
        },
        {
          "indexed": false,
          "internalType": "address",
          "name": "nftAddress",
          "type": "address"
        },
        {
          "indexed": false,
          "internalType": "address",
          "name": "quoteToken",
          "type": "address"
        },
        {
          "indexed": false,
          "internalType": "uint256",
          "name": "nftId",
          "type": "uint256"
        },
        {
          "indexed": false,
          "internalType": "uint256",
          "name": "offerPrice",
          "type": "uint256"
        },
        {
          "indexed": false,
          "internalType": "uint256",
          "name": "quantity",
          "type": "uint256"
        }
      ],
      "name": "OfferExecuted",
      "type": "event"
    },
    {
      "anonymous": false,
      "inputs": [
        {
          "indexed": true,
          "internalType": "address",
          "name": "previousOwner",
          "type": "address"
        },
        {
          "indexed": true,
          "internalType": "address",
          "name": "newOwner",
          "type": "address"
        }
      ],
      "name": "OwnershipTransferred",
      "type": "event"
    },
    {
      "anonymous": false,
      "inputs": [
        {
          "indexed": true,
          "internalType": "address",
          "name": "asset",
          "type": "address"
        },
        {
          "indexed": false,
          "internalType": "address",
          "name": "user",
          "type": "address"
        }
      ],
      "name": "RemoveQuoteToken",
      "type": "event"
    },
    {
      "anonymous": false,
      "inputs": [
        {
          "indexed": true,
          "internalType": "uint256",
          "name": "saleId",
          "type": "uint256"
        },
        {
          "indexed": true,
          "internalType": "address",
          "name": "seller",
          "type": "address"
        },
        {
          "indexed": true,
          "internalType": "address",
          "name": "buyer",
          "type": "address"
        },
        {
          "indexed": false,
          "internalType": "address",
          "name": "nftAddress",
          "type": "address"
        },
        {
          "indexed": false,
          "internalType": "uint256",
          "name": "nftId",
          "type": "uint256"
        },
        {
          "indexed": false,
          "internalType": "uint256",
          "name": "quantity",
          "type": "uint256"
        }
      ],
      "name": "SellExecuted",
      "type": "event"
    },
    {
      "inputs": [],
      "name": "ERC721InterfaceID",
      "outputs": [
        {
          "internalType": "bytes4",
          "name": "",
          "type": "bytes4"
        }
      ],
      "stateMutability": "view",
      "type": "function"
    },
    {
      "inputs": [
        {
          "internalType": "address",
          "name": "_asset",
          "type": "address"
        }
      ],
      "name": "addQuoteToken",
      "outputs": [],
      "stateMutability": "nonpayable",
      "type": "function"
    },
    {
      "inputs": [],
      "name": "allowedQuoteTokens",
      "outputs": [
        {
          "internalType": "address[]",
          "name": "",
          "type": "address[]"
        }
      ],
      "stateMutability": "view",
      "type": "function"
    },
    {
      "inputs": [
        {
          "internalType": "address",
          "name": "userAddress",
          "type": "address"
        },
        {
          "internalType": "bytes",
          "name": "functionSignature",
          "type": "bytes"
        },
        {
          "internalType": "bytes32",
          "name": "sigR",
          "type": "bytes32"
        },
        {
          "internalType": "bytes32",
          "name": "sigS",
          "type": "bytes32"
        },
        {
          "internalType": "uint8",
          "name": "sigV",
          "type": "uint8"
        }
      ],
      "name": "executeMetaTransaction",
      "outputs": [
        {
          "internalType": "bytes",
          "name": "",
          "type": "bytes"
        }
      ],
      "stateMutability": "payable",
      "type": "function"
    },
    {
      "inputs": [
        {
          "internalType": "uint256[5]",
          "name": "uints",
          "type": "uint256[5]"
        },
        {
          "internalType": "address[]",
          "name": "addrs",
          "type": "address[]"
        },
        {
          "internalType": "bytes[2]",
          "name": "sigs",
          "type": "bytes[2]"
        }
      ],
      "name": "executeOffer",
      "outputs": [],
      "stateMutability": "nonpayable",
      "type": "function"
    },
    {
      "inputs": [
        {
          "internalType": "uint256[4]",
          "name": "uints",
          "type": "uint256[4]"
        },
        {
          "internalType": "address[3]",
          "name": "addrs",
          "type": "address[3]"
        },
        {
          "internalType": "bytes[2]",
          "name": "sigs",
          "type": "bytes[2]"
        }
      ],
      "name": "executeSell",
      "outputs": [],
      "stateMutability": "payable",
      "type": "function"
    },
    {
      "inputs": [
        {
          "internalType": "address",
          "name": "user",
          "type": "address"
        }
      ],
      "name": "getNonce",
      "outputs": [
        {
          "internalType": "uint256",
          "name": "nonce",
          "type": "uint256"
        }
      ],
      "stateMutability": "view",
      "type": "function"
    },
    {
      "inputs": [
        {
          "internalType": "address",
          "name": "_token",
          "type": "address"
        }
      ],
      "name": "isAllowedQuoteToken",
      "outputs": [
        {
          "internalType": "bool",
          "name": "",
          "type": "bool"
        }
      ],
      "stateMutability": "view",
      "type": "function"
    },
    {
      "inputs": [],
      "name": "owner",
      "outputs": [
        {
          "internalType": "address",
          "name": "",
          "type": "address"
        }
      ],
      "stateMutability": "view",
      "type": "function"
    },
    {
      "inputs": [
        {
          "internalType": "address",
          "name": "_asset",
          "type": "address"
        }
      ],
      "name": "removeQuoteToken",
      "outputs": [],
      "stateMutability": "nonpayable",
      "type": "function"
    },
    {
      "inputs": [],
      "name": "renounceOwnership",
      "outputs": [],
      "stateMutability": "nonpayable",
      "type": "function"
    },
    {
      "inputs": [
        {
          "internalType": "address",
          "name": "newOwner",
          "type": "address"
        }
      ],
      "name": "transferOwnership",
      "outputs": [],
      "stateMutability": "nonpayable",
      "type": "function"
    }
  ],
  "transactionHash": "0x9cbba768fc2558ec119529a1b9bd810318f832ac9bb36a7639160dec9f70e819",
  "args": [],
  "solcInputHash": "79d526e35e0ad93392b2ad0f9892adbf",
  "bytecode": "0x60806040523480156200001157600080fd5b506040518060400160405280600e81526020016d13585c9cdd995c9cd3585c9ad95d60921b815250604051806040016040528060018152602001603160f81b8152508181604051806080016040528060528152602001620023b3605291398051906020012082805190602001208280519060200120620000966200010e60201b60201c565b604080516020810195909552840192909252606083015260808201523060a082015260c00160408051808303601f1901815291905280516020909101206000555050600160025550620000eb90503362000112565b62000107600160046200016460201b620013761790919060201c565b50620001d6565b4690565b600380546001600160a01b038381166001600160a01b0319831681179093556040519116919082907f8be0079c531659141344cd1fd0a4f28419497f9722a3daafe3b4186f6b6457e090600090a35050565b60006200017b836001600160a01b03841662000184565b90505b92915050565b6000818152600183016020526040812054620001cd575081546001818101845560008481526020808220909301849055845484825282860190935260409020919091556200017e565b5060006200017e565b6121cd80620001e66000396000f3fe6080604052600436106100a75760003560e01c8063575815111161006457806357581511146101c1578063715018a6146101e15780638da5cb5b146101f6578063c9f6b5271461021e578063f2fde38b1461023e578063fd0a50e01461025e57600080fd5b80630c53c51c146100ac57806312452dd9146100d5578063235fec981461010957806323833acc146101395780632d0335ab1461015b5780633ad2bc411461019f575b600080fd5b6100bf6100ba366004611c70565b610271565b6040516100cc9190611fe2565b60405180910390f35b3480156100e157600080fd5b506100f06380ac58cd60e01b81565b6040516001600160e01b031990911681526020016100cc565b34801561011557600080fd5b50610129610124366004611c56565b6104ee565b60405190151581526020016100cc565b34801561014557600080fd5b50610159610154366004611d9e565b610501565b005b34801561016757600080fd5b50610191610176366004611c56565b6001600160a01b031660009081526001602052604090205490565b6040519081526020016100cc565b3480156101ab57600080fd5b506101b4610bca565b6040516100cc9190611f95565b3480156101cd57600080fd5b506101596101dc366004611c56565b610bdb565b3480156101ed57600080fd5b50610159610cc8565b34801561020257600080fd5b506003546040516001600160a01b0390911681526020016100cc565b34801561022a57600080fd5b50610159610239366004611c56565b610cfe565b34801561024a57600080fd5b50610159610259366004611c56565b610dbe565b61015961026c366004611ce9565b610e59565b6060600061027e86611392565b90506000356001600160e01b0319908116908216141561030b5760405162461bcd60e51b815260206004820152603d60248201527f66756e6374696f6e5369676e61747572652063616e206e6f74206265206f662060448201527f657865637574654d6574615472616e73616374696f6e206d6574686f6400000060648201526084015b60405180910390fd5b604080516060810182526001600160a01b0389166000818152600160209081529084902054835282015290810187905261034888828888886113ae565b61039e5760405162461bcd60e51b815260206004820152602160248201527f5369676e657220616e64207369676e617475726520646f206e6f74206d6174636044820152600d60fb1b6064820152608401610302565b6001600160a01b0388166000908152600160208190526040909120546103c3916120c9565b6001600160a01b03891660009081526001602090815260408083209390935591519091829130916103f8918c918e9101611eee565b60408051601f198184030181529082905261041291611ed2565b6000604051808303816000865af19150503d806000811461044f576040519150601f19603f3d011682016040523d82523d6000602084013e610454565b606091505b5091509150816104a65760405162461bcd60e51b815260206004820152601c60248201527f46756e6374696f6e2063616c6c206e6f74207375636365737366756c000000006044820152606401610302565b7f5845892132946850460bff5a0083f71031bc5bf9aadcd40f1de79423eac9b10b8a338b6040516104d993929190611f25565b60405180910390a19998505050505050505050565b60006104fb60048361148a565b92915050565b6002805414156105535760405162461bcd60e51b815260206004820152601f60248201527f5265656e7472616e637947756172643a207265656e7472616e742063616c6c006044820152606401610302565b6002808190555060006040518060c001604052808460008151811061058857634e487b7160e01b600052603260045260246000fd5b60200260200101516001600160a01b03168152602001846001815181106105bf57634e487b7160e01b600052603260045260246000fd5b60200260200101516001600160a01b03168152602001846002815181106105f657634e487b7160e01b600052603260045260246000fd5b60200260200101516001600160a01b031681526020018560016005811061062d57634e487b7160e01b600052603260045260246000fd5b602002015181526020018560036005811061065857634e487b7160e01b600052603260045260246000fd5b602002015181526020018560046005811061068357634e487b7160e01b600052603260045260246000fd5b6020020151905290504284600260200201511015806106a457506040840151155b6106f05760405162461bcd60e51b815260206004820181905260248201527f4d6172734d61726b65743a20546869732073616c6520697320657870697265646044820152606401610302565b42816080015110158061070557506080810151155b61075b5760405162461bcd60e51b815260206004820152602160248201527f4d6172734d61726b65743a2054686973206f66666572206973206578706972656044820152601960fa1b6064820152608401610302565b602081015161076c9060049061148a565b6107b25760405162461bcd60e51b81526020600482015260176024820152762737ba1030b63637bbb2b21038bab7ba32903a37b5b2b760491b6044820152606401610302565b80516001600160a01b031633141561081d5760405162461bcd60e51b815260206004820152602860248201527f4d6172734d61726b65743a2043616e206e6f74206f6666657220796f7572206f6044820152673bb71034ba32b69760c11b6064820152608401610302565b6000816000015182602001518360600151846080015185604001518660a0015160405160200161085296959493929190611f5a565b6040516020818303038152906040528051906020012090506000610875826114ac565b90506000808061088c8760015b60200201516114ee565b9250925092506000600185838686604051600081526020016040526040516108d0949392919093845260ff9290921660208401526040830152606082015260800190565b6020604051602081039080840390855afa1580156108f2573d6000803e3d6000fd5b50505060206040510351905086600001516001600160a01b0316816001600160a01b0316146109795760405162461bcd60e51b815260206004820152602d60248201527f4d6172734d61726b65743a20496e76616c6964206f666665722070726f76696460448201526c32b91039b4b3b730ba3ab9329760991b6064820152608401610302565b610984886000610882565b895160208b015160608c0151949850929650909450918c600260200201518a604001518b60a001516040516020016109c196959493929190611f5a565b6040516020818303038152906040528051906020012095506109e2866114ac565b60408051600081526020810180835283905260ff851691810191909152606081018690526080810185905290955060019060a0016020604051602081039080840390855afa158015610a38573d6000803e3d6000fd5b5050604051601f1901519150506001600160a01b0381163314610a6d5760405162461bcd60e51b815260040161030290611ff5565b610a8587602001518860000151338a60600151611562565b600089600281518110610aa857634e487b7160e01b600052603260045260246000fd5b6020908102919091010151885160a08a01516040516323b872dd60e01b81523360048201526001600160a01b03928316602482015260448101919091529192508216906323b872dd90606401600060405180830381600087803b158015610b0e57600080fd5b505af1158015610b22573d6000803e3d6000fd5b505089516001600160a01b031691503390508c600060200201517f4daf3b8d8dd0d6eb8b7ad28ff6649e592c0dc1f40b29ad8d9a1777dff282553f8b604001518c602001518d60a001518e606001516001604051610bb09594939291906001600160a01b03958616815293909416602084015260408301919091526060820152608081019190915260a00190565b60405180910390a450506001600255505050505050505050565b6060610bd660046116a0565b905090565b6003546001600160a01b03163314610c055760405162461bcd60e51b81526004016103029061203a565b610c1060048261148a565b15610c6b5760405162461bcd60e51b815260206004820152602560248201527f41737365742077617320616c726561647920616464656420696e207768697465604482015264081b1a5cdd60da1b6064820152608401610302565b610c76600482611376565b50806001600160a01b03167fab3683692306c4037840f547957b3b2b67cb4f3927a54d050fed0de6f145f8da610caa6116ad565b6040516001600160a01b03909116815260200160405180910390a250565b6003546001600160a01b03163314610cf25760405162461bcd60e51b81526004016103029061203a565b610cfc600061170a565b565b6003546001600160a01b03163314610d285760405162461bcd60e51b81526004016103029061203a565b610d3360048261148a565b610d7f5760405162461bcd60e51b815260206004820152601a60248201527f4173736574206973206e6f7420696e207768697465206c6973740000000000006044820152606401610302565b610d8a60048261175c565b50806001600160a01b03167fa397c80a790c95c75798609978c28c5e005fe791cfa71a2da0a6b46b78cb9a0a610caa6116ad565b6003546001600160a01b03163314610de85760405162461bcd60e51b81526004016103029061203a565b6001600160a01b038116610e4d5760405162461bcd60e51b815260206004820152602660248201527f4f776e61626c653a206e6577206f776e657220697320746865207a65726f206160448201526564647265737360d01b6064820152608401610302565b610e568161170a565b50565b600280541415610eab5760405162461bcd60e51b815260206004820152601f60248201527f5265656e7472616e637947756172643a207265656e7472616e742063616c6c006044820152606401610302565b600280556040830151421115610f0d5760405162461bcd60e51b815260206004820152602160248201527f4d6172734d61726b65743a20546869732073616c6520697320657870697265646044820152601760f91b6064820152608401610302565b81516001600160a01b0316331415610f785760405162461bcd60e51b815260206004820152602860248201527f4d6172734d61726b65743a2073656c6c65722063616e206e6f7420627579206860448201526734b99034ba32b69760c11b6064820152608401610302565b6020820151610f899060049061148a565b610fcf5760405162461bcd60e51b81526020600482015260176024820152762737ba1030b63637bbb2b21038bab7ba32903a37b5b2b760491b6044820152606401610302565b8151602080840151858201516040808801518188015160608a01519251600097610ffe97909695949101611f5a565b6040516020818303038152906040528051906020012090506000611021826114ac565b9050600080806110318682610882565b925092509250600060018583868660405160008152602001604052604051611075949392919093845260ff9290921660208401526040830152606082015260800190565b6020604051602081039080840390855afa158015611097573d6000803e3d6000fd5b5050604051601f19015189519092506001600160a01b0380841691161490506110d25760405162461bcd60e51b815260040161030290611ff5565b6110dd876001610882565b6040805160008152602081018083528a905260ff8316918101919091526060810184905260808101839052929650909450925060019060a0016020604051602081039080840390855afa158015611138573d6000803e3d6000fd5b5050604051601f1901519150506001600160a01b03811633146111a95760405162461bcd60e51b8152602060048201526024808201527f4d6172734d61726b65743a20496e76616c6964206275796572207369676e61746044820152633ab9329760e11b6064820152608401610302565b60208801516001600160a01b03166001141561121c57602089015134146112065760405162461bcd60e51b8152602060048201526011602482015270125b9cdd59999a58da595b9d08199d5b99607a1b6044820152606401610302565b875160208a01516112179190611771565b611274565b341561125d5760405162461bcd60e51b815260206004820152601060248201526f455243323020746f6b656e2073616c6560801b6044820152606401610302565b6020808901518951918b0151611274923391611562565b604080890151895160608c015192516323b872dd60e01b81526001600160a01b03918216600482015233602482015260448101939093529091908216906323b872dd90606401600060405180830381600087803b1580156112d457600080fd5b505af11580156112e8573d6000803e3d6000fd5b503392508b91506000905060200201516001600160a01b03168b600060200201517f8ba103fa8bb1c180dc8bef610319c7e8587eaa112f28f24e55e49b715710e9168c600260200201518e600360209081029190910151604080516001600160a01b0390941684529183015260019082015260600160405180910390a4505060016002555050505050505050565b600061138b836001600160a01b038416611850565b9392505050565b60008151600014156113a657506000919050565b506020015190565b60008060016113c46113bf8861189f565b6114ac565b6040805160008152602081018083529290925260ff861690820152606081018790526080810186905260a0016020604051602081039080840390855afa158015611412573d6000803e3d6000fd5b5050604051601f1901519150506001600160a01b0381166114695760405162461bcd60e51b8152602060048201526011602482015270496e76616c6964207369676e617475726560781b6044820152606401610302565b866001600160a01b0316816001600160a01b03161491505095945050505050565b6001600160a01b0381166000908152600183016020526040812054151561138b565b6000805460405161190160f01b60208201526022810191909152604281018390526062015b604051602081830303815290604052805190602001209050919050565b600080600083516041146115445760405162461bcd60e51b815260206004820152601860248201527f696e76616c6964207369676e6174757265206c656e67746800000000000000006044820152606401610302565b50505060208101516040820151606090920151909260009190911a90565b604080516001600160a01b0385811660248301528481166044830152606480830185905283518084039091018152608490920183526020820180516001600160e01b03166323b872dd60e01b17905291516000928392908816916115c69190611ed2565b6000604051808303816000865af19150503d8060008114611603576040519150601f19603f3d011682016040523d82523d6000602084013e611608565b606091505b50915091508180156116325750805115806116325750808060200190518101906116329190611e86565b6116985760405162461bcd60e51b815260206004820152603160248201527f5472616e7366657248656c7065723a3a7472616e7366657246726f6d3a207472604482015270185b9cd9995c919c9bdb4819985a5b1959607a1b6064820152608401610302565b505050505050565b6060600061138b836118ff565b60003330141561170457600080368080601f0160208091040260200160405190810160405280939291908181526020018383808284376000920191909152505050503601516001600160a01b031691506117079050565b50335b90565b600380546001600160a01b038381166001600160a01b0319831681179093556040519116919082907f8be0079c531659141344cd1fd0a4f28419497f9722a3daafe3b4186f6b6457e090600090a35050565b600061138b836001600160a01b03841661195b565b604080516000808252602082019092526001600160a01b03841690839060405161179b9190611ed2565b60006040518083038185875af1925050503d80600081146117d8576040519150601f19603f3d011682016040523d82523d6000602084013e6117dd565b606091505b505090508061184b5760405162461bcd60e51b815260206004820152603460248201527f5472616e7366657248656c7065723a3a736166655472616e736665724554483a60448201527308115512081d1c985b9cd9995c8819985a5b195960621b6064820152608401610302565b505050565b6000818152600183016020526040812054611897575081546001818101845560008481526020808220909301849055845484825282860190935260409020919091556104fb565b5060006104fb565b600060405180608001604052806043815260200161215560439139805160209182012083518483015160408087015180519086012090516114d1950193845260208401929092526001600160a01b03166040830152606082015260800190565b60608160000180548060200260200160405190810160405280929190818152602001828054801561194f57602002820191906000526020600020905b81548152602001906001019080831161193b575b50505050509050919050565b60008181526001830160205260408120548015611a6e57600061197f6001836120e1565b8554909150600090611993906001906120e1565b9050818114611a145760008660000182815481106119c157634e487b7160e01b600052603260045260246000fd5b90600052602060002001549050808760000184815481106119f257634e487b7160e01b600052603260045260246000fd5b6000918252602080832090910192909255918252600188019052604090208390555b8554869080611a3357634e487b7160e01b600052603160045260246000fd5b6001900381819060005260206000200160009055905585600101600086815260200190815260200160002060009055600193505050506104fb565b60009150506104fb565b60006040516080810181811067ffffffffffffffff82111715611a9d57611a9d61213e565b6040529050808260808101851015611ab457600080fd5b60005b6004811015611ad6578135835260209283019290910190600101611ab7565b50505092915050565b600060405160a0810181811067ffffffffffffffff82111715611b0457611b0461213e565b6040529050808260a08101851015611b1b57600080fd5b60005b6005811015611ad6578135835260209283019290910190600101611b1e565b80356001600160a01b0381168114611b5457600080fd5b919050565b600082601f830112611b69578081fd5b6040516040810167ffffffffffffffff8282108183111715611b8d57611b8d61213e565b816040528291508486604087011115611ba4578485fd5b845b6002811015611bdf57813583811115611bbd578687fd5b611bc989828a01611beb565b8552506020938401939190910190600101611ba6565b50929695505050505050565b600082601f830112611bfb578081fd5b813567ffffffffffffffff811115611c1557611c1561213e565b611c28601f8201601f1916602001612098565b818152846020838601011115611c3c578283fd5b816020850160208301379081016020019190915292915050565b600060208284031215611c67578081fd5b61138b82611b3d565b600080600080600060a08688031215611c87578081fd5b611c9086611b3d565b9450602086013567ffffffffffffffff811115611cab578182fd5b611cb788828901611beb565b9450506040860135925060608601359150608086013560ff81168114611cdb578182fd5b809150509295509295909350565b60008060006101008486031215611cfe578283fd5b84601f850112611d0c578283fd5b611d168585611a78565b925084609f850112611d26578182fd5b611d2e61206f565b806080860160e0870188811115611d43578586fd5b855b6003811015611d6c57611d5783611b3d565b85526020948501949290920191600101611d45565b509194505035905067ffffffffffffffff811115611d88578182fd5b611d9486828701611b59565b9150509250925092565b600080600060e08486031215611db2578283fd5b84601f850112611dc0578283fd5b611dca8585611adf565b925060a084013567ffffffffffffffff80821115611de6578384fd5b818601915086601f830112611df9578384fd5b8135602082821115611e0d57611e0d61213e565b8160051b611e1c828201612098565b8381528281019086840183880185018d1015611e3657898afd5b8997505b85881015611e5f57611e4b81611b3d565b835260019790970196918401918401611e3a565b50975050505060c087013592505080821115611e79578283fd5b50611d9486828701611b59565b600060208284031215611e97578081fd5b8151801515811461138b578182fd5b60008151808452611ebe8160208601602086016120f8565b601f01601f19169290920160200192915050565b60008251611ee48184602087016120f8565b9190910192915050565b60008351611f008184602088016120f8565b60609390931b6bffffffffffffffffffffffff19169190920190815260140192915050565b6001600160a01b03848116825283166020820152606060408201819052600090611f5190830184611ea6565b95945050505050565b6001600160a01b039687168152948616602086015260408501939093526060840191909152909216608082015260a081019190915260c00190565b6020808252825182820181905260009190848201906040850190845b81811015611fd65783516001600160a01b031683529284019291840191600101611fb1565b50909695505050505050565b60208152600061138b6020830184611ea6565b60208082526025908201527f4d6172734d61726b65743a20496e76616c69642073656c6c6572207369676e616040820152643a3ab9329760d91b606082015260800190565b6020808252818101527f4f776e61626c653a2063616c6c6572206973206e6f7420746865206f776e6572604082015260600190565b6040516060810167ffffffffffffffff811182821017156120925761209261213e565b60405290565b604051601f8201601f1916810167ffffffffffffffff811182821017156120c1576120c161213e565b604052919050565b600082198211156120dc576120dc612128565b500190565b6000828210156120f3576120f3612128565b500390565b60005b838110156121135781810151838201526020016120fb565b83811115612122576000848401525b50505050565b634e487b7160e01b600052601160045260246000fd5b634e487b7160e01b600052604160045260246000fdfe4d6574615472616e73616374696f6e2875696e74323536206e6f6e63652c616464726573732066726f6d2c62797465732066756e6374696f6e5369676e617475726529a26469706673582212205920f751f225e8aa9ced872c937b50b21bcf3440db63001da2610c7cfd6618c564736f6c63430008040033454950373132446f6d61696e28737472696e67206e616d652c737472696e672076657273696f6e2c75696e7432353620636861696e49642c6164647265737320766572696679696e67436f6e747261637429",
  "devdoc": {
    "kind": "dev",
    "methods": {
      "executeOffer(uint256[5],address[],bytes[2])": {
        "params": {
          "sigs": "The signatures of seller and buyer. sigs[0]: seller signature, sigs[1]: buyer signature"
        }
      },
      "owner()": {
        "details": "Returns the address of the current owner."
      },
      "renounceOwnership()": {
        "details": "Leaves the contract without owner. It will not be possible to call `onlyOwner` functions anymore. Can only be called by the current owner. NOTE: Renouncing ownership will leave the contract without an owner, thereby removing any functionality that is only available to the owner."
      },
      "transferOwnership(address)": {
        "details": "Transfers ownership of the contract to a new account (`newOwner`). Can only be called by the current owner."
      }
    },
    "version": 1
  },
  "userdoc": {
    "kind": "user",
    "methods": {},
    "version": 1
  },
  "storageLayout": {
    "storage": [
      {
        "astId": 3973,
        "contract": "contracts/MarsversMarket.sol:MarsversMarket",
        "label": "domainSeparator",
        "offset": 0,
        "slot": "0",
        "type": "t_bytes32"
      },
      {
        "astId": 4068,
        "contract": "contracts/MarsversMarket.sol:MarsversMarket",
        "label": "nonces",
        "offset": 0,
        "slot": "1",
        "type": "t_mapping(t_address,t_uint256)"
      },
      {
        "astId": 115,
        "contract": "contracts/MarsversMarket.sol:MarsversMarket",
        "label": "_status",
        "offset": 0,
        "slot": "2",
        "type": "t_uint256"
      },
      {
        "astId": 7,
        "contract": "contracts/MarsversMarket.sol:MarsversMarket",
        "label": "_owner",
        "offset": 0,
        "slot": "3",
        "type": "t_address"
      },
      {
        "astId": 3332,
        "contract": "contracts/MarsversMarket.sol:MarsversMarket",
        "label": "_allowedQuoteTokens",
        "offset": 0,
        "slot": "4",
        "type": "t_struct(AddressSet)2926_storage"
      }
    ],
    "types": {
      "t_address": {
        "encoding": "inplace",
        "label": "address",
        "numberOfBytes": "20"
      },
      "t_array(t_bytes32)dyn_storage": {
        "base": "t_bytes32",
        "encoding": "dynamic_array",
        "label": "bytes32[]",
        "numberOfBytes": "32"
      },
      "t_bytes32": {
        "encoding": "inplace",
        "label": "bytes32",
        "numberOfBytes": "32"
      },
      "t_mapping(t_address,t_uint256)": {
        "encoding": "mapping",
        "key": "t_address",
        "label": "mapping(address => uint256)",
        "numberOfBytes": "32",
        "value": "t_uint256"
      },
      "t_mapping(t_bytes32,t_uint256)": {
        "encoding": "mapping",
        "key": "t_bytes32",
        "label": "mapping(bytes32 => uint256)",
        "numberOfBytes": "32",
        "value": "t_uint256"
      },
      "t_struct(AddressSet)2926_storage": {
        "encoding": "inplace",
        "label": "struct EnumerableSet.AddressSet",
        "members": [
          {
            "astId": 2925,
            "contract": "contracts/MarsversMarket.sol:MarsversMarket",
            "label": "_inner",
            "offset": 0,
            "slot": "0",
            "type": "t_struct(Set)2625_storage"
          }
        ],
        "numberOfBytes": "64"
      },
      "t_struct(Set)2625_storage": {
        "encoding": "inplace",
        "label": "struct EnumerableSet.Set",
        "members": [
          {
            "astId": 2620,
            "contract": "contracts/MarsversMarket.sol:MarsversMarket",
            "label": "_values",
            "offset": 0,
            "slot": "0",
            "type": "t_array(t_bytes32)dyn_storage"
          },
          {
            "astId": 2624,
            "contract": "contracts/MarsversMarket.sol:MarsversMarket",
            "label": "_indexes",
            "offset": 0,
            "slot": "1",
            "type": "t_mapping(t_bytes32,t_uint256)"
          }
        ],
        "numberOfBytes": "64"
      },
      "t_uint256": {
        "encoding": "inplace",
        "label": "uint256",
        "numberOfBytes": "32"
      }
    }
  }
}